:020000040800F2
:100000000030002003040008FD030008FD03000881
:10001000FD030008FD030008FD03000800000000C8
:10002000000000000000000000000000FD030008C8
:100030000000000000000000FD030008FD030008B0
:10004000FD030008FD030008FD030008FD03000890
:10005000FD030008FD030008FD030008FD03000880
:10006000FD030008FD030008FD030008FD03000870
:10007000FD030008FD030008FD030008FD03000860
:10008000FD030008FD030008FD030008FD03000850
:10009000FD030008FD030008FD030008FD03000840
:1000A000FD030008FD030008FD030008FD03000830
:1000B000C50600080000000000000000000000006D
:1000C0000000000000000000000000000000000030
:1000D0000000000000000000000000000000000020
:1000E0000000000000000000000000000000000010
:1000F0000000000000000000000000000000000000
:1003FC0080B400AFFEE780B588B000AF1C4B7B61CA
:10040C001C4B3B611C4A1A4BD31A9B10FB601B4ABA
:10041C00184BD31A9B10BB60194B7B600023FB61FC
:10042C000CE0FB699B007A681A44FB699B007969B4
:10043C000B4412681A60FB690133FB61FA69FB68B3
:10044C009A42EED30023BB6108E0BB699B003A697A
:10045C00134400221A60BB690133BB61BA69BB68E3
:10046C009A42F2D300F048F800BF2037BD4680BD59
:10047C0000000020040000200400002020020020C6
:10048C00E808000880B400AF4FF090431B684FF0B1
:10049C00904223F4406313604FF090431B684FF07D
:1004AC00904243F48063136000BFBD4680BC70472C
:1004BC0080B483B000AF0F4B1B780133DAB20D4B15
:1004CC001A700C4B1B7803F00103DAB2094B1A704B
:1004DC00084B1B781B01DBB20533FB71FB794FF02A
:1004EC009042012101FA03F3936100BF0C37BD4622
:1004FC0080BC70470000002080B500AF094B5B69E1
:10050C00084A43F400335361FFF7BCFF00F0AAF82C
:10051C0000F002F9044800F00BF8044800F008F869
:10052C0030BFFDE70010024014010020080000203D
:10053C0080B483B000AF78607B680022C3F80021E0
:10054C007B680022C3F804217B680022C3F80821D1
:10055C0000BF0C37BD4680BC704780B483B000AF81
:10056C0078600B46FB707B68D3F800317A68F978B9
:10057C00D1547B68D3F8003101335A42DBB2D2B28A
:10058C0058BF53427A68C2F800317B68D3F80831FF
:10059C00B3F5807F0DD17B68D3F8043101335A4217
:1005AC00DBB2D2B258BF53427A68C2F8043102238C
:1005BC0007E07B68D3F808315A1C7B68C3F8082124
:1005CC00002318460C37BD4680BC704780B483B0FE
:1005DC0000AF786039607B68D3F804217B68D3F86E
:1005EC0000319A4201D103231AE07B68D3F804311D
:1005FC007A68D25C3B681A707B68D3F8043101339B
:10060C005A42DBB2D2B258BF53427A68C2F80431B4
:10061C007B68D3F808315A1E7B68C3F80821002385
:10062C0018460C37BD4680BC7047000080B483B0C0
:10063C0000AF0346FB7197F90730002B0BDBFB79FE
:10064C0003F01F02064997F907305B09012000FAF5
:10065C0002F241F8232000BF0C37BD4680BC704726
:10066C0000E100E080B500AF124BDB69114A43F0AA
:10067C000103D3614FF08043DB684FF0804243F0BD
:10068C000103D3604FF0804341F63F729A624FF002
:10069C00804340F2E732DA621C20FFF7C7FF4FF0CD
:1006AC0080431B684FF0804243F00103136000BF8E
:1006BC0080BD00BF0010024080B500AF4FF08043FA
:1006CC001B6903F00103002B1DD04FF080431B6905
:1006DC004FF0804223F0010313610C4B1B68013374
:1006EC000A4A1360094B1968094BA3FB01239A08AA
:1006FC0013469B001344CA1A002A04D1FFF7D8FEF4
:10070C00044800F061F800BF80BD00BF0400002069
:10071C00CDCCCCCCD808000880B400AF1C4BDB6926
:10072C001B4A43F40033D3614FF090431B684FF0E6
:10073C00904223F0F00313604FF090431B684FF08E
:10074C00904243F0A00313604FF090431B6A4FF0AC
:10075C00904223F47F4313624FF090431B6A4FF097
:10076C00904243F4EE4313620A4B4522DA60094B84
:10077C001B68084A43F00C031360064B1B68054AC0
:10078C0043F00103136000BFBD4680BC704700BF3F
:10079C00001002400044004080B483B000AF034618
:1007AC00FB7100BF074BDB6903F08003002BF9D012
:1007BC00044BFA7992B21A8500BF0C37BD4680BC47
:1007CC00704700BF0044004080B582B000AF786035
:1007DC0006E07B685A1C7A601B781846FFF7DCFF32
:1007EC007B681B78002BF4D100BF054BDB6903F051
:1007FC004003002BF9D000BF00BF0837BD4680BDB9
:10080C000044004080B5C4B000AF07F58873A3F571
:10081C008673186007F58873A3F588731960002335
:10082C0087F80B310023C7F80C3107F20B1207F5D0
:10083C008873A3F5887311461868FFF7C7FE034643
:10084C001A4607F58873A3F586731B681A7007F5AB
:10085C008873A3F586731B681B78032B24D007F5CC
:10086C008873A3F586731B681B78002B18D007F5CB
:10087C008873A3F586731B681B78022B14D10FE0C9
:10088C0097F80B1107F58873A3F58472D7F80C3120
:10089C0013440A461A70D7F80C310133C7F80C31DF
:1008AC0097F80B310D2BEBD100BF184607F5887765
:1008BC00BD4680BD80B400AF00BFBD4680BC704754
:1008CC0080B400AF00BFBD4680BC70475469636BF9
:0C08DC0020557064617465210D0A000055
:0408E800010000000B
:0400000508000403E8
:00000001FF
