:020000040800F2
:100000000030002017040008110400081104000843
:100010001104000811040008110400080000000089
:1000200000000000000000000000000011040008B3
:100030000000000000000000110400081104000886
:10004000110400081104000811040008110400083C
:1000500000000000000000000000000000000000A0
:100060000000000000000000000000000000000090
:100070000000000000000000000000000000000080
:1003FC0080B400AF024B1B680133014A1360F9E76C
:10040C000000002080B400AFFEE780B588B000AFDC
:10041C001C4B7B611C4B3B611C4A1A4BD31A9B1027
:10042C00FB601B4A184BD31A9B10BB60194B7B60AB
:10043C000023FB610CE0FB699B007A681A44FB69A2
:10044C009B0079690B4412681A60FB690133FB61EC
:10045C00FA69FB689A42EED30023BB6108E0BB69E2
:10046C009B003A69134400221A60BB690133BB61DB
:10047C00BA69BB689A42F2D3FFF7BAFF00BF2037C4
:10048C00BD4680BD000000200800002008000020B0
:08049C0008000020A404000880
:0804A400050000000600000045
:0400000508000417D4
:00000001FF
