:020000040800F2
:1000000000300020530500084D0500084D0500088C
:100010004D0500084D0500084D05000800000000D2
:100020000000000000000000000000004D05000876
:1000300000000000000000004D0500084D0500080C
:100040004D0500084D0500084D0500084D05000848
:100050004D0500084D0500084D0500084D05000838
:100060004D0500084D0500084D0500084D05000828
:100070004D0500084D0500084D0500084D05000818
:100080004D0500084D0500084D0500084D05000808
:100090004D0500084D0500084D0500084D050008F8
:1000A0004D0500084D0500084D0500084D050008E8
:1000B000050500080000000000000000000000002E
:1000C0000000000000000000000000000000000030
:1000D0000000000000000000000000000000000020
:1000E0000000000000000000000000000000000010
:1000F0000000000000000000000000000000000000
:1003FC0080B483B000AF0346FB7197F90730002B34
:10040C000BDBFB7903F01F02064997F907305B09F8
:10041C00012000FA02F241F8232000BF0C37BD4640
:10042C0080BC704700E100E080B400AF4FF0904317
:10043C001B684FF0904223F4406313604FF09043DD
:10044C001B684FF0904243F48063136000BFBD46BD
:10045C0080BC704780B483B000AF114B1B78013364
:10046C00DAB20F4B1A700E4B1B7803F00103DAB2A1
:10047C000B4B1A700A4B1B781B01DBB20533FB715B
:10048C004FF090439A69FB79012101FA03F34FF085
:10049C00904113438B6100BF0C37BD4680BC704745
:1004AC000000002080B500AF124BDB69114A43F00D
:1004BC000103D3614FF08043DB684FF0804243F07F
:1004CC000103D3604FF0804341F63F729A624FF0C4
:1004DC00804340F2E732DA621C20FFF789FF4FF0CD
:1004EC0080431B684FF0804243F00103136000BF50
:1004FC0080BD00BF0010024080B500AF4FF08043BC
:10050C001B6903F00103002B09D04FF080431B69DA
:10051C004FF0804223F001031361FFF79BFF00BFF4
:10052C0080BD80B500AF054B5B69044A43F40033D2
:10053C005361FFF779FFFFF7B5FFFEE700100240AC
:10054C0080B400AFFEE780B588B000AF1C4B7B6178
:10055C001C4B3B611C4A1A4BD31A9B10FB601B4A69
:10056C00184BD31A9B10BB60194B7B600023FB61AB
:10057C000CE0FB699B007A681A44FB699B00796963
:10058C000B4412681A60FB690133FB61FA69FB6862
:10059C009A42EED30023BB6108E0BB699B003A6929
:1005AC00134400221A60BB690133BB61BA69BB6892
:1005BC009A42F2D3FFF7B5FF00BF2037BD4680BD8E
:1005CC000000002004000020040000200400002093
:0405DC00E00500082E
:0405E0000100000016
:040000050800055397
:00000001FF
